:100000000C9434000C9451000C9451000C94510049
:100010000C9451000C9451000C9451000C940A0360
:100020000C9451000C9451000C9451000C9451000C
:100030000C9451000C9451000C9451000C945100FC
:100040000C9451000C9451000C9451000C945100EC
:100050000C9451000C9451000C9451000C945100DC
:100060000C9451000C94510011241FBECFEFD8E026
:10007000DEBFCDBF11E0A0E0B1E0ECE3F2E102C0F1
:1000800005900D92A835B107D9F721E0A8E5B1E0B8
:1000900001C01D92A03FB207E1F70E94D0000C946E
:1000A0001C090C9400008AB1806C8AB984B1876005
:1000B00084B908959BB180E489278BB908958BB1E9
:1000C00080588BB9089595B181E0892785B9089545
:1000D00095B182E0892785B9089595B184E0892793
:1000E00085B90895CF93DF9300D0CDB7DEB70E94D6
:1000F0002B059A8389830E946D0064EF71E0CE0125
:1001000001960E942F07F7CFCF93DF9300D0CDB792
:10011000DEB70E942B059A8389830E94680060E9FC
:1001200071E0CE0101960E942F07F7CFCF93DF93A6
:1001300000D0CDB7DEB70E942B059A8389830E9439
:1001400063006CE271E0CE0101960E942F07F7CFA9
:10015000CF93DF9300D0CDB7DEB70E942B059A83F3
:1001600089830E945F0068EC70E0CE0101960E94D6
:100170002F07F7CFCF93DF9300D0CDB7DEB70E9424
:100180002B059A8389830E945A0064E670E0CE01B1
:1001900001960E942F07F7CF0E945300259A0895D9
:1001A000EF92FF920F930E94CC00E12CF12C01E022
:1001B00020E030E040E450E067E071E08AEB90E05E
:1001C0000E94C60302E020E030E040E450E066E137
:1001D00071E088EA90E00E94C60303E020E030E08E
:1001E00040E450E065E271E086E990E00E94C603D9
:1001F00004E020E030E040E450E064E371E084E8B3
:1002000090E00E94C60305E020E030E040E450E0CA
:1002100063E471E082E790E00E94C6030E94F90463
:1002200080E090E00F91FF90EF90089588950895F9
:10023000FC010396928381832FEF3FEF3483238366
:10024000968385839087878310820895FC011186A9
:1002500010860895CF93DF93EB01488159814F3F7A
:100260002FEF520721F4FC01A781B0850DC0DC01FE
:10027000139601C0DF011296ED91FC911397208136
:10028000318142175307B0F71296ED91FC91139705
:10029000FB83EA83D583C483BD83AC831396DC934D
:1002A000CE93129799878887FC0120812F5F208346
:1002B000DF91CF910895CF93DF93FC01A085B185A5
:1002C000C281D381848195819D838C83C481D581B2
:1002D000828193819B838A831196CD91DC911297C1
:1002E000CE17DF0731F48C819D8112969C938E93FB
:1002F0001197118610868C9181508C938C91DF918F
:10030000CF91089531E1FC013083319722E22083BF
:10031000FC013297A3E3A083FC0133976083FC01C7
:1003200034977083FC0135971082FC01369760E8A2
:100330006083FC0137971082FC01389762E060838C
:10034000FC01399763E06083FC013A9764E06083C5
:10035000FC013B9765E06083FC013C9766E06083AD
:10036000FC013D9767E06083FC013E9768E0608395
:10037000FC013F9769E06083FC01709760E1608356
:10038000FC0171973083FC01729732E13083FC01EC
:10039000739733E13083FC01749734E13083FC01BF
:1003A000759735E13083FC01769736E13083FC01A7
:1003B000779737E13083FC01789738E13083FC018F
:1003C000799739E13083FC017A9730E23083FC0180
:1003D0007B9731E23083FC017C972083FC017D9781
:1003E00023E22083FC017E974083FC017F975083AA
:1003F000FC01B09726E22083FC01B19727E220831D
:10040000FC01B29728E22083FC01B39729E2208304
:10041000FC01B49720E32083FC01B59721E32083FE
:100420009C0126523109822F932F089589EF8093E2
:10043000B300E0EBF0E0808182608083E1EBF0E0EC
:10044000808184608083E0E7F0E080818260808347
:10045000A0916901B0916A01CD91CDBFDD91DEBF60
:10046000FF91EF91DF91CF91BF91AF919F918F91CC
:100470007F916F915F914F913F912F911F910F91BC
:10048000FF90EF90DF90CF90BF90AF909F908F90B4
:100490007F906F905F904F903F902F901F900F90A4
:1004A0000FBE0F90089581E008950F920FB6F89453
:1004B0000F921F9211242F923F924F925F926F9250
:1004C0007F928F929F92AF92BF92CF92DF92EF92E4
:1004D000FF920F931F932F933F934F935F936F93CD
:1004E0007F938F939F93AF93BF93CF93DF93EF93BC
:1004F000FF93A0916901B0916A010DB60D920EB6FD
:100500000D920E947107A0916901B0916A01CD918D
:10051000CDBFDD91DEBFFF91EF91DF91CF91BF9114
:10052000AF919F918F917F916F915F914F913F918B
:100530002F911F910F91FF90EF90DF90CF90BF9080
:10054000AF909F908F907F906F905F904F903F9073
:100550002F901F900F900FBE0F9008950F920FB61F
:10056000F8940F921F9211242F923F924F925F9214
:100570006F927F928F929F92AF92BF92CF92DF92B3
:10058000EF92FF920F931F932F933F934F935F939D
:100590006F937F938F939F93AF93BF93CF93DF938B
:1005A000EF93FF93A0916901B0916A010DB60D928E
:1005B0000EB60D920E94370581110E947107A0911D
:1005C0006901B0916A01CD91CDBFDD91DEBFFF9190
:1005D000EF91DF91CF91BF91AF919F918F917F91DB
:1005E0006F915F914F913F912F911F910F91FF90CC
:1005F000EF90DF90CF90BF90AF909F908F907F90C3
:100600006F905F904F903F902F901F900F900FBE74
:100610000F9008950E94AE021895CF93DF93EC01DE
:100620000E942505CE010E94C907D82FC92F0E941C
:1006300053068D2F9C2FDF91CF910895CF93DF9399
:10064000EC01009739F00E942505CE010E94640854
:100650000E945306DF91CF910895E0916701F091D8
:1006600068018081811107C08FEF9FEF90935A013D
:10067000809359010895E0916701F0916801058028
:10068000F681E02D8081918190935A0180935901E8
:1006900008950F931F93CF93DF93EC0100916101B5
:1006A000109162018091690190916A0102960E9405
:1006B0005B01C00FD11FE0916901F0916A01D38302
:1006C000C283C017D10768F46091690170916A0113
:1006D00080916501909166016E5F7F4F0E942A01B3
:1006E00017C06091690170916A01809167019091D2
:1006F00068016E5F7F4F0E942A018091590190919D
:100700005A01C817D90720F4D0935A01C093590150
:10071000DF91CF911F910F910895CF93DF93EC015B
:100720008F89988D0E941E03CE010E941E03DF91C7
:10073000CF9108950CE611E01CC00FB6F8940F920B
:10074000E091E601F091E701C681D781CE010296E2
:100750000E945B01809163018150809363018091CD
:1007600064018150809364010F900FBECE010E94FE
:100770008D03809164018111E0CFF8018081823086
:1007800010F00E9455020E941601F3CF4F925F9223
:100790006F927F928F929F92AF92BF92CF92DF9291
:1007A000EF92FF920F93CF93DF934C016B015A01AD
:1007B0002901CA010E940D033C01009709F408C1F8
:1007C0008EE290E00E940D03EC01009759F0788EC4
:1007D0006F8A81E0A81AB1086A0C7B1CC114D1048D
:1007E00029F41EC0C3010E941E03F2C0D6018C91E1
:1007F000898F8C91882391F0AE01465E5F4FF601A0
:10080000319621E0CF013191DA013D93AD01DC0158
:100810008C91882319F02F5F2031A1F718A601C011
:10082000198E0A3008F009E00E8B6E01B2E0CB0E93
:10083000D11CC6010E942601CE010C960E94260101
:10084000D987C8878AE090E0801B91099D878C87B3
:10085000DB8BCA8B19A61AA61BA61CA61DA6A20175
:10086000B401C3010E94820199838883E114F104D9
:1008700019F0F701D183C0830FB6F8940F928091DD
:1008800063018F5F809363018091690190916A0198
:10089000892BE1F5D0936A01C093690180916301CE
:1008A000813009F043C0E12CF12CC701880F991F5A
:1008B000880F991F880F991F8E0D9F1D84599E4F79
:1008C0000E941801FFEFEF1AFF0A8AE0E816F10410
:1008D00061F786EC91E00E9418018FEC91E00E9494
:1008E000180188ED91E00E94180181EE91E00E94CC
:1008F000180186EC91E090936801809367018FEC7A
:1009000091E0909366018093650110C080915F0132
:1009100081110CC0E0916901F0916A0196898E897C
:10092000891720F0D0936A01C093690180916B010F
:100930008F5F80936B018E8990916001981710F4FE
:100940008093600190E0FC01EE0FFF1FEE0FFF1F90
:10095000EE0FFF1F8E0F9F1FFC01E459FE4F018019
:10096000F281E02DFD83EC83848195819F838E83CA
:10097000A481B5811396DC92CE921297D582C4825F
:100980008E8990E0FC01EE0FFF1FEE0FFF1FEE0FB0
:10099000FF1FE80FF91FE459FE4FFB87EA878081AC
:1009A0008F5F80830F900FBE80915F01882361F07D
:1009B000E0916901F0916A0196898E89981730F467
:1009C0000E94550281E005C081E003C081E001C0C2
:1009D0008FEFDF91CF910F91FF90EF90DF90CF904D
:1009E000BF90AF909F908F907F906F905F904F904F
:1009F0000895EF92FF920F930F2EFAEEEF2EF1E093
:100A0000FF2EF02D00E020E030E040E450E062E511
:100A100071E08AE993E00E94C603813081F4F89482
:100A20008FEF9FEF90935A018093590181E080935B
:100A30005F0110926201109261010E941602809182
:100A400006010F91FF90EF900895809158018F5FFC
:100A50008093580108950FB6F8940F922091610188
:100A6000309162010F900FBE822F932F08950F9344
:100A70001F93CF93DF9380915801811103C1C091DF
:100A80006101D09162018E010F5F1F4F10936201CF
:100A90000093610101151105B9F4809167019091EE
:100AA00068012091650130916601309368012093BF
:100AB0006701909366018093650180915B018F5F70
:100AC00080935B010E942D038091590190915A01FE
:100AD0000817190720F480E0BAC0892F02C080E00F
:100AE00091E0E0916701F09168012081211107C038
:100AF0002FEF3FEF30935A0120935901A8C0E091A6
:100B00006701F09168010580F681E02D0680F7818C
:100B1000E02D228133810217130728F430935A0104
:100B20002093590194C0A285B385248135814681E3
:100B30005781E9015D834C8326813781448155814A
:100B4000E9015B834A839F012E5F3F4F11964D91D0
:100B50005C9112974217530731F4468157811296E0
:100B60005C934E931197138612864C9141504C938F
:100B7000A489B589109719F14685578560897189CF
:100B8000EA017D836C834089518966857785EA0116
:100B90007B836A83AF01445F5F4F11966D917C91B7
:100BA00012976417750731F44089518912965C9346
:100BB0004E931197158A148A4C9141504C93468953
:100BC00050916001541710F44093600150E0DA0135
:100BD000AA0FBB1FAA0FBB1FAA0FBB1F4A0F5B1F89
:100BE000DA01A459BE4F11960D90BC91A02DB5838A
:100BF000A48314964D915C91159757834683149660
:100C00004D915C911597EA013B832A8315963C939D
:100C10002E931497A689B0E09D01220F331F220F57
:100C2000331F220F331FA20FB31FA459BE4FB38728
:100C3000A2872C912F5F2C93A0916901B0916A013A
:100C4000368956962C91321708F047CF4ACFE0915B
:100C50006901F0916A01268930E0F901EE0FFF1F6A
:100C6000EE0FFF1FEE0FFF1F2E0F3F1FF901E4597C
:100C7000FE4F9081923008F081E090915C019111DB
:100C80000CC00CC080915D0190915E010196909323
:100C90005E0180935D0180E001C081E0DF91CF9132
:100CA0001F910F9108951F93CF93DF930FB6F89480
:100CB0000F92809158018150809358018091580182
:100CC0008111C4C080916301811199C0C2C0E091BB
:100CD000DD01F091DE010680F781E02DA489B58960
:100CE0008685978520893189EC013D832C83808915
:100CF000918926853785EC013B832A83CF010C96A9
:100D000011962D913C9112972817390731F480895B
:100D1000918912969C938E931197158A148A8C91BF
:100D200081508C93A285B3858481958126813781FA
:100D3000EC013D832C838681978124813581EC01F0
:100D40003B832A83CF01029611962D913C911297F5
:100D50002817390731F42681378112963C932E9358
:100D60001197138612862C9121502C93268930914D
:100D70006001321710F42093600130E0D901AA0F0E
:100D8000BB1FAA0FBB1FAA0FBB1F2A0F3B1FD901F6
:100D9000A459BE4F11960D90BC91A02DB583A4838C
:100DA00014962D913C9115973783268314962D9197
:100DB0003C911597E9019B838A8315969C938E93AA
:100DC0001497A689B0E0CD01880F991F880F991F4D
:100DD000880F991FA80FB91FA459BE4FB387A287C8
:100DE0008C918F5F8C93A0916901B0916A01968973
:100DF00056968C91981740F040935C0105C0E0E056
:100E0000F0E068ED71E041E0DB018C9181115FCF92
:100E1000EF2B11F00E942D03C0915D01D0915E0176
:100E2000209761F011E00E943705811110935C0159
:100E30002197C9F710925E0110925D0180915C01CB
:100E4000882331F00E94550281E003C080E001C098
:100E500080E00F900FBEDF91CF911F9108950F9307
:100E60001F93CF93DF93EC018B010E942505E09146
:100E70006101F091620128813981C801820F931FBD
:100E8000E217F30768F48217930708F511E0E817F3
:100E9000F90708F010E099838883112369F007C0EF
:100EA0008217930780F0E817F90768F010C060E038
:100EB0008E1B9F0B0E9449030E94530681110BC099
:100EC0000E94550208C09983888311E0F0CF99836E
:100ED000888310E0F1CF812FDF91CF911F910F9187
:100EE000089580915801882321F081E080935C016E
:100EF000089510925C0120916001822F90E0FC0126
:100F0000EE0FFF1FEE0FFF1FEE0FFF1FE80FF91F81
:100F1000E459FE4F3081311111C02150822F90E0F1
:100F2000FC01EE0FFF1FEE0FFF1FEE0FFF1FE80F7C
:100F3000F91FE459FE4F3081332379F3FC01EE0FA2
:100F4000FF1FEE0FFF1FEE0FFF1F8E0F9F1FFC01F5
:100F5000E459FE4FA181B28112960D90BC91A02D53
:100F6000B283A183CF010396A817B90731F4129673
:100F70008D919C911397928381830180F281E02D62
:100F80008681978190936A01809369012093600123
:100F900008950F931F93CF93DF938230910510F440
:100FA00082E090E0E091EE01F091EF0120E030E08E
:100FB000C0E0D0E023C04081518148175907A8F014
:100FC0004817590761F482819381209719F09B8318
:100FD0008A832EC09093EF018093EE0129C02115E2
:100FE000310529F04217530710F0A90102C0BE01D4
:100FF000DF0102811381EF019A01F8013097D9F6E0
:101000002115310509F1281B390B2430310590F4E5
:1010100012968D919C9113976115710521F0FB013A
:101020009383828304C09093EF018093EE01FD01CE
:10103000329644C0FD01E20FF31F81939193225039
:1010400031092D933C933AC02091EC013091ED0190
:10105000232B41F420910201309103013093ED01E3
:101060002093EC01209100013091010121153105FF
:1010700041F42DB73EB74091040150910501241B66
:10108000350BE091EC01F091ED01E217F307A0F4CC
:101090002E1B3F0B2817390778F0AC014E5F5F4FCE
:1010A0002417350748F04E0F5F1F5093ED01409312
:1010B000EC018193919302C0E0E0F0E0CF01DF9179
:1010C000CF911F910F910895EF92FF920F931F936D
:1010D000CF93DF93009709F48FC0DC01129713962A
:1010E0001C921E921297E090EE01F090EF01E11435
:1010F000F10489F42D913C911197280F391F8091AB
:10110000EC019091ED018217930789F5B093ED0101
:10111000A093EC0171C0E70120E030E001C0EA01DA
:10112000CA17DB0738F44A815B819E0141155105DE
:10113000B1F722C0BC0162507109FB01D383C283A5
:1011400000811181AC01400F511F4C175D0761F404
:1011500048815981400F511F4E5F5F4F518340833B
:101160004A815B81538342832115310529F4B09371
:10117000EF01A093EE0140C0F901B383A283E9011E
:1011800069917991C60FD71FAC17BD0779F4DC01BF
:101190005E914E91460F571F4E5F5F4F51834083C4
:1011A00012968D919C91139793838283A0E0B0E077
:1011B00002C0D7017C01F701828193810097C9F7B2
:1011C000C701029620813181820F931F2091EC018B
:1011D0003091ED012817390779F4109729F410920E
:1011E000EF011092EE0104C013961C921E9212970A
:1011F000F092ED01E092EC01CDB7DEB7E6E00C94A1
:101200000D092A88398848885F846E847D848C849F
:101210009B84AA84B984C884DF80EE80FD800C8121
:101220001B81AA81B981CE0FD11D0FB6F894DEBF04
:0C1230000FBECDBFED010895F894FFCF74
:10123C000000F001200009764C454431466C617386
:10124C00685461736B00764C454432466C6173682C
:10125C005461736B00764C454433466C617368542F
:10126C0061736B00764C454434466C617368546111
:10127C00736B00764C454435466C617368546173EE
:08128C006B0049444C450000D1
:00000001FF
